:100000000C9456000C9473000C9473000C947300C1
:100010000C9473000C9473000C9473000C94E30024
:100020000C94ED000C9473000C9473000C9473000A
:100030000C94CB000C9473000C9473000C9473001C
:100040000C9473000C9473000C9473000C94730064
:100050000C9473000C9473000C9473000C94730054
:100060000C9473000C9473000C9473000C94730044
:100070000C9473000C9473000C9473000C94730034
:100080000C9473000C9473000C9473000C94730024
:100090000C9473000C9473000C9473000C94730014
:1000A0000C9473000C9473000C94730011241FBE05
:1000B000CFEFCDBFDFE2DEBF10E2A0E0B0E2ECE6C2
:1000C000F2E002C005900D92A030B107D9F720E20E
:1000D000A0E0B0E201C01D92A230B207E1F70E9499
:1000E00010010C9434010C940000A0E0B6E024E070
:1000F00012962C931297E0E4F6E080E1828390E27E
:10010000928312968C93129711969C93119738E0D4
:1001100011963C9341E04183A0E6B6E011969C9392
:10012000119711968C9311973183218380E4129655
:100130008C9308958BE480935200809150008860E6
:100140008093500098E08091510083FD03C090930C
:100150004506F9CF88E08093460688ED84BF88EC99
:10016000809355008091500080618093500098E00A
:100170008091510084FD03C090934506F9CF88E03B
:100180008093460688ED84BF1092400084BF84E0CF
:100190008093400008951F920F920FB60F92112482
:1001A0008F93EF93FF93E0E0F8E08485816084878C
:1001B00081E080930120FF91EF918F910F900FBE0E
:1001C0000F901F9018951F920F920FB60F92112447
:1001D0000F900FBE0F901F9018951F920F920FB6A1
:1001E0000F9211248F9380910020882331F084E0B6
:1001F000809346061092002006C084E08093450656
:1002000081E080930020109208041092090482E09B
:10021000809303048F910F900FBE0F901F9018953D
:100220000E9475000E949A0084E08093460690E246
:10023000909365068093450690910120911110924C
:1002400001209091440692FD03C08093450602C0B0
:10025000809346062FEF33ED90E3215030409040DD
:0C026000E1F700C00000E8CFF894FFCFE9
:00000001FF
