:100000000C9456000C9473000C9473000C947300C1
:100010000C9473000C9473000C9473000C94000106
:100020000C940A010C9473000C9473000C947300EC
:100030000C94E8000C9473000C9473000C947300FF
:100040000C9473000C9473000C9473000C94730064
:100050000C9473000C9473000C9473000C94730054
:100060000C9473000C9473000C9473000C94730044
:100070000C9473000C9473000C9473000C94730034
:100080000C9473000C9473000C9473000C94730024
:100090000C9473000C9473000C9473000C94730014
:1000A0000C9473000C9473000C94730011241FBE05
:1000B000CFEFCDBFDFE2DEBF10E2A0E0B0E2EAEFBB
:1000C000F2E002C005900D92AE32B107D9F720E2FE
:1000D000AEE2B0E201C01D92A033B207E1F70E9488
:1000E00030010C947B010C940000A0E0B6E034E0F9
:1000F00012963C931297E0E4F6E080E1828390E26E
:10010000928312968C93129711969C93119728E0E4
:1001100011962C9341E04183A0E6B6E011969C93A2
:10012000119711968C9311973183218380E4129655
:100130008C930895E0E5F0E08BE482838081886011
:100140008083818183FD09C0A0E4B6E098E0159624
:100150009C931597818183FFFACF88E080934606B0
:1001600088ED84BFE0E5F0E088EC858380818061E4
:100170008083818184FD09C0A0E4B6E098E01596F3
:100180009C931597818184FFFACF88E0809346067F
:1001900088ED84BFE0E4F0E0108284BF84E08083D7
:1001A0000895E0E4F6E080E8818380E48283868538
:1001B00080618687E0ECF8E083E0848382E28683D6
:1001C000178283818061838383818860838308951C
:1001D0001F920F920FB60F9211248F93EF93FF93FC
:1001E000E0E0F8E084858160848781E080932F20BF
:1001F000FF91EF918F910F900FBE0F901F90189568
:100200001F920F920FB60F9211240F900FBE0F90F6
:100210001F9018951F920F920FB60F9211248F9373
:10022000EF93FF9380912E20882331F084E0809318
:10023000460610922E2006C084E08093450681E099
:1002400080932E20E0E0F4E01086118682E0838324
:10025000FF91EF918F910F900FBE0F901F90189507
:100260000E9475000E949A000E94D100E0E4F6E02E
:1002700084E0868390E290936506858380E090E237
:100280000E946B01C0E4D6E004E00F2EE12CF6E002
:10029000FF2EF02D18E080912F20811110922F2039
:1002A0008C8182FD02C00D8301C00E832FEF80E799
:1002B00092E0215080409040E1F700C0000082E1D0
:1002C00090E20E946B01F701808584FD02C01D83CE
:1002D000E2CF1E83E0CFFC012081222359F0DC0114
:1002E0001196E0ECF8E0918195FFFDCF20832D91F0
:0A02F0002111F9CF0895F894FFCF13
:1002FA0048656C6C6F2C20776F726C64203A290AFF
:10030A000D00506F7461746F65732061726520749B
:0E031A00686520636F6F6C657374210A0D00B7
:00000001FF
