:100000000C9456000C9473000C9473000C947300C1
:100010000C9473000C9473000C9473000C940C01FA
:100020000C9416010C9473000C9473000C947300E0
:100030000C94F4000C9473000C9473000C947300F3
:100040000C9473000C9473000C9473000C94730064
:100050000C9473000C9473000C9473000C94730054
:100060000C9473000C9473000C9473000C94730044
:100070000C9473000C9473000C9473000C94730034
:100080000C9473000C9473000C9473000C94730024
:100090000C9473000C9473000C9473000C94730014
:1000A0000C9473000C9473000C94730011241FBE05
:1000B000CFEFCDBFDFE2DEBF11E2A0E0B0E2E4E1CE
:1000C000F7E002C005900D92AC32B107D9F721E2FA
:1000D000ACE2B1E201C01D92AB34B207E1F70E947D
:1000E0008B020C9488030C940000A0E0B6E034E08E
:1000F00012963C931297E0E4F6E080E1828390E26E
:10010000928312968C93129711969C93119728E0E4
:1001100011962C9341E04183A0E6B6E011969C93A2
:10012000119711968C9311973183218380E4129655
:100130008C930895E0E5F0E08BE482838081886011
:100140008083818183FD09C0A0E4B6E098E0159624
:100150009C931597818183FFFACF88E080934606B0
:1001600088ED84BFE0E5F0E088EC858380818061E4
:100170008083818184FD09C0A0E4B6E098E01596F3
:100180009C931597818184FFFACF88E0809346067F
:1001900088ED84BFE0E4F0E0108284BF84E08083D7
:1001A0000895E0E4F6E080E8818380E48283868538
:1001B00080618687E0ECF8E083E0848382E28683D6
:1001C000178283818061838383818860838308951C
:1001D000E0E0F8E087E0808389E09DE386A397A3D1
:1001E000118281E0868308951F920F920FB60F92BD
:1001F00011248F93EF93FF93E0E0F8E08485816012
:10020000848781E080934A21FF91EF918F910F9035
:100210000FBE0F901F9018951F920F920FB60F925E
:1002200011240F900FBE0F901F9018951F920F92E0
:100230000FB60F9211248F93EF93FF938091492172
:10024000882331F084E0809346061092492106C04D
:1002500084E08093450681E080934921E0E0F4E06A
:100260001086118682E08383FF91EF918F910F902A
:100270000FBE0F901F901895AAECB1E022E02C93CE
:10028000FC0184911C9208952F923F924F925F92AD
:100290006F927F928F929F92AF92BF92CF92DF9296
:1002A000EF92FF920F931F93CF93DF9388E090E03C
:1002B0000E943C01CEE3D1E2888389E090E00E9475
:1002C0003C0189838AE090E00E943C018A838BE0B4
:1002D00090E00E943C018B838CE090E00E943C0106
:1002E0008C838DE090E00E943C018D8380E190E062
:1002F0000E943C018E8382E190E00E943C018F834A
:1003000083E190E00E943C01888784E190E00E94B4
:100310003C01898785E190E00E943C018A87288022
:10032000312C412C512C612C712C4301AFE3B1E2F3
:10033000E4E6F0E08D918E9FE0018F9FD00D1124B7
:100340001D2F110F110B222D332D442D552D662DF0
:10035000772D882D992DAC2EBD2EC12ED12EE12EBC
:10036000F12E012F0E944A03222E332E442E552EA9
:10037000662E772E882E992EEC59FF4FE83582E0B5
:10038000F807C1F620923621309237214092382169
:100390005092392160923A2170923B2180923C2107
:1003A00090923D21EEE3F1E22681A781C4E6AC9F65
:1003B000D00111241B2F110F110B30E040E050E051
:1003C00060E070E080E090E0AA2EBB2EC12ED12E1E
:1003D000E12EF12E012F0E944A03A085C8ECAC9FAC
:1003E000D00111241B2F110F110BAA2EBB2EC12ED1
:1003F000D12EE12EF12E012F0E944A03C185ACE2DD
:10040000B1E0CA9FF001CB9FF00D11241F2F110FF7
:10041000110BAE2EBF2EC12ED12EE12EF12E012FAB
:100420000E944A0320932E2130932F2140933021A4
:100430005093312160933221709333218093342182
:10044000909335218FEF9FEF80932C2190932D2156
:10045000222D332D442D552D662D772D882D992D48
:100460002D3D324441055105610571058105910518
:1004700019F520912E2130912F214091302150915A
:1004800031216091322170913321809134219091FA
:100490003521233F3542410551056105710581052F
:1004A000910551F481E090E080932C2190932D21CF
:1004B00080E090E20E94230384E190E20E94230303
:1004C00080913621909137210E94330386E290E299
:1004D0000E94230388E290E20E94230380912E2150
:1004E00090912F210E94330386E290E20E94230321
:1004F000DF91CF911F910F91FF90EF90DF90CF9000
:10050000BF90AF909F908F907F906F905F904F9033
:100510003F902F9008950E9475000E949A000E94BB
:10052000D1000E9444010E94E800E0EAF0E08281EC
:10053000816082837894E0E0F6E088E0858380E261
:1005400086838BE390E20E94230382E590E20E947F
:10055000230385E690E20E94230389E690E20E944D
:10056000230380912C2190912D218F3F2FEF920713
:1005700029F48CE790E20E94230302C00E94330317
:1005800084E890E20E942303C0E4D6E06894BB2490
:10059000B2F80F2EF0ECEF2EF8E0FF2EF02D00E079
:1005A00016E06894CC24C3F86894DD24D5F88091D3
:1005B0004A21811110924A218C8182FD02C0BD82A4
:1005C00001C0BE828FEF90E7E2E081509040E040B2
:1005D000E1F700C00000F701818188234CF580EC31
:1005E00090E20E9423038FE490E20E942303F7012C
:1005F000A080F8E2AF1205C080ED90E20E942303D4
:1006000010C029E2A21205C08CEE90E20E942303E2
:100610000FC082E3A81205C087E091E20E94230385
:1006200007C093E3A91204C08AE191E20E94230368
:10063000F801808584FD03C0CD82D582B8CFCE82FB
:10064000F801D682B4CFFC012081222359F0DC01CD
:100650001196E0ECF8E0918195FFFDCF20832D917C
:100660002111F9CF0895CF93DF93CDB7DEB764970B
:10067000CDBFDEBF4AE0BE016F5F7F4F0E945303D4
:10068000CE0101960E9423036496CDBFDEBFDF91A9
:10069000CF9108952A0D3B1D4C1D5D1D6E1D7F1DC4
:1006A000801F911F0895BB274A3031F4992322F40B
:1006B000BDE2909581959F4F0C945F03BB27FB0192
:1006C0005527AA27880F991FAA1FA41710F0A41B4B
:1006D00083955051B9F7A05DAA3308F0A95DA193A5
:1006E000009779F7B111B1931192CB010C94780373
:1006F000DC01FC01672F71917723E1F7329704C089
:100700007C916D9370836291AE17BF07C8F3089513
:04071000F894FFCF8B
:100714000A0D4964656E74696669656420626F6177
:1007240072642E00235B4C6F74204944204E756D17
:100734006265723A20005D005B576166657220490C
:1007440044204E756D6265723A20000A0D235B49A0
:100754004E495420524F534520434F4D4D535D0A4B
:100764000D00234669726D77617265207665727338
:10077400696F6E2000302E31000A0D2353657269B3
:10078400616C204E756D6265723A20004E4F5420A4
:10079400534554000A0D234D736720666F726D61D3
:1007A400743A204972696469756D20537461747573
:1007B40073207C20525353492056616C7565207C0C
:1007C40020436F6D6D73205374617475730A0D004B
:1007D400526563656976656420646174612E2000E6
:1007E4005475726E696E67206F666620497269641B
:1007F40069756D204D6F64656D0A0D005475726ED8
:10080400696E67206F6E204972696469756D204D49
:100814006F64656D0A0D005475726E696E67206FA2
:10082400666620586265650A0D005475726E696EBD
:0C08340067206F6E20584265650A0D00B9
:00000001FF
