:100000000C9456000C9473000C9473000C947300C1
:100010000C9473000C9473000C9473000C940C01FA
:100020000C9416010C9473000C9473000C947300E0
:100030000C94F4000C9473000C9473000C947300F3
:100040000C9473000C9473000C9473000C94730064
:100050000C9473000C9473000C9473000C94730054
:100060000C9473000C9473000C9473000C94730044
:100070000C9473000C9473000C9473000C94730034
:100080000C9473000C9473000C9473000C94730024
:100090000C9473000C9473000C9473000C94730014
:1000A0000C9473000C9473000C94730011241FBE05
:1000B000CFEFCDBFDFE2DEBF11E2A0E0B0E2E2EEC3
:1000C000FDE002C005900D92AC33B107D9F721E2F3
:1000D000ACE3B1E201C01D92AB35B207E1F70E947B
:1000E000A3020C94EF060C940000A0E0B6E034E00C
:1000F00012963C931297E0E4F6E080E1828390E26E
:10010000928312968C93129711969C93119728E0E4
:1001100011962C9341E04183A0E6B6E011969C93A2
:10012000119711968C9311973183218380E4129655
:100130008C930895E0E5F0E08BE482838081886011
:100140008083818183FD09C0A0E4B6E098E0159624
:100150009C931597818183FFFACF88E080934606B0
:1001600088ED84BFE0E5F0E088EC858380818061E4
:100170008083818184FD09C0A0E4B6E098E01596F3
:100180009C931597818184FFFACF88E0809346067F
:1001900088ED84BFE0E4F0E0108284BF84E08083D7
:1001A0000895E0E4F6E080E8818380E48283868538
:1001B00080618687E0ECF8E083E0848382E28683D6
:1001C000178283818061838383818860838308951C
:1001D000E0E0F8E087E0808389E09DE386A397A3D1
:1001E000118281E0868308951F920F920FB60F92BD
:1001F00011248F93EF93FF93E0E0F8E08485816012
:10020000848781E080935A21FF91EF918F910F9025
:100210000FBE0F901F9018951F920F920FB60F925E
:1002200011240F900FBE0F901F9018951F920F92E0
:100230000FB60F9211248F93EF93FF938091592162
:10024000882331F084E0809346061092592106C03D
:1002500084E08093450681E080935921E0E0F4E05A
:100260001086118682E08383FF91EF918F910F902A
:100270000FBE0F901F901895AAECB1E022E02C93CE
:10028000FC0184911C9208952F923F924F925F92AD
:100290006F927F928F929F92AF92BF92CF92DF9296
:1002A000EF92FF920F931F93CF93DF9388E090E03C
:1002B0000E943C01CEE4D1E2888389E090E00E9474
:1002C0003C0189838AE090E00E943C018A838BE0B4
:1002D00090E00E943C018B838CE090E00E943C0106
:1002E0008C838DE090E00E943C018D8380E190E062
:1002F0000E943C018E8382E190E00E943C018F834A
:1003000083E190E00E943C01888784E190E00E94B4
:100310003C01898785E190E00E943C018A87288022
:10032000312C412C512C612C712C4301AFE4B1E2F2
:10033000E4E6F0E08D918E9FE0018F9FD00D1124B7
:100340001D2F110F110B222D332D442D552D662DF0
:10035000772D882D992DAC2EBD2EC12ED12EE12EBC
:10036000F12E012F0E94DF03222E332E442E552E14
:10037000662E772E882E992EEC59FF4FE83582E0B5
:10038000F807C1F620924621309247214092482139
:100390005092492160924A2170924B2180924C21C7
:1003A00090924D21EEE4F1E22681A781C4E6AC9F54
:1003B000D00111241B2F110F110B30E040E050E051
:1003C00060E070E080E090E0AA2EBB2EC12ED12E1E
:1003D000E12EF12E012F0E94DF03A085C8ECAC9F17
:1003E000D00111241B2F110F110BAA2EBB2EC12ED1
:1003F000D12EE12EF12E012F0E94DF03C185ACE248
:10040000B1E0CA9FF001CB9FF00D11241F2F110FF7
:10041000110BAE2EBF2EC12ED12EE12EF12E012FAB
:100420000E94DF0320933E2130933F2140934021DF
:100430005093412160934221709343218093442142
:10044000909345218FEF9FEF80933C2190933D2126
:10045000222D332D442D552D662D772D882D992D48
:100460002D3D3244414051056105710581059105DD
:1004700019F520913E2130913F214091402150912A
:1004800041216091422170914321809144219091BA
:100490004521233F3542410551056105710581051F
:1004A000910551F481E090E080933C2190933D21AF
:1004B00080E090E20E944B0384E190E20E943B03C3
:1004C0002091462130914721409148215091492166
:1004D00060914A2170914B2180914C2190914D2146
:1004E0000E94720386E290E20E943B0388E290E25F
:1004F0000E943B0320913E2130913F2140914021B9
:100500005091412160914221709143218091442179
:10051000909145210E94720386E290E20E943B0383
:10052000DF91CF911F910F91FF90EF90DF90CF90CF
:10053000BF90AF909F908F907F906F905F904F9003
:100540003F902F9008950E9475000E949A000E948B
:10055000D1000E9444010E94E800E0EAF0E08281BC
:10056000816082837894E0E0F6E088E0858380E231
:1005700086838BE390E20E944B0382E590E20E9427
:100580004B0385E690E20E944B0389E690E20E94CD
:100590004B0380913C2190913D218F3F2FEF92079B
:1005A00029F48CE790E20E944B0302C00E945B0397
:1005B00084E890E20E944B03C0E4D6E06894BB2438
:1005C000B2F80F2EF0ECEF2EF8E0FF2EF02D00E049
:1005D00016E06894CC24C3F86894DD24D5F88091A3
:1005E0005A21811110925A218C8182FD02C0BD8254
:1005F00001C0BE828FEF90E7E2E081509040E04082
:10060000E1F700C00000F701818188234CF580EC00
:1006100090E20E944B038FE490E20E944B03F701AB
:10062000A080F8E2AF1205C080ED90E20E944B037B
:1006300010C029E2A21205C08CEE90E20E944B038A
:100640000FC082E3A81205C087E091E20E944B032D
:1006500007C093E3A91204C08AE191E20E944B0310
:10066000F801808584FD03C0CD82D582B8CFCE82CB
:10067000F801D682B4CFFC012081222359F0DC019D
:100680001196E0ECF8E0918195FFFDCF20832D914C
:100690002111F9CF0895FC012081222359F0DC01BA
:1006A0001196E0ECF8E0918195FFFDCF20832D912C
:1006B0002111F9CF0895CF93DF93CDB7DEB76497BB
:1006C000CDBFDEBF4AE0BE016F5F7F4F0E94E803EF
:1006D000CE0101960E943B036496CDBFDEBFDF9141
:1006E000CF910895FF920F931F93CF93DF93CDB7D0
:1006F000DEB7E297CDBFDEBFF52EE22FF32F142F2A
:1007000020E030E040E050E000E20E94C303822F8E
:10071000932FA42FB52F892B8A2B8B2BA9F0FF9217
:100720001F93FF93EF935F934F933F932F938CE22D
:1007300091E29F938F93CE0101969F938F930E9496
:100740000D04CDBFDEBF10C0FF921F93FF93EF9348
:100750008FE291E29F938F93CE0101969F938F93A7
:100760000E940D04CDBFDEBFCE0101960E943B0367
:10077000E296CDBFDEBFDF91CF911F910F91FF9029
:10078000089597FB10F8169400080F93083098F01E
:100790000850232F342F452F562F672F782F892F5E
:1007A000902DF4CF059497958795779567955795F4
:1007B0004795379527950A95AAF70F9108952A0D21
:1007C0003B1D4C1D5D1D6E1D7F1D801F911F0895DB
:1007D000BB274A3031F4992322F4BDE290958195EC
:1007E0009F4F0C94F403BB27FB015527AA27880FC2
:1007F000991FAA1FA41710F0A41B83955051B9F795
:10080000A05DAA3308F0A95DA193009779F7B11113
:10081000B1931192CB010C941806AEE0B0E0E3E185
:10082000F4E00C94CC060D891E8986E08C83098344
:100830001A838FEF9FE78D839E83AE01475E5F4FE4
:100840006F89788DCE0101960E9430042F81388502
:10085000F801E20FF31F10822E96E4E00C94E506F7
:10086000ACE0B0E0E6E3F4E00C94BE067C016B0182
:100870008A01FC0116821782838181FFBDC1CE01EE
:1008800001964C01F7019381F60193FD859193FF49
:1008900081916F01882309F4ABC1853239F493FD4E
:1008A000859193FF81916F01853229F4B70190E022
:1008B0000E942806E7CF512C312C20E02032A0F4F2
:1008C0008B3269F030F4803259F0833269F4206160
:1008D0002CC08D3239F0803339F4216026C022607B
:1008E000246023C0286021C027FD27C030ED380FC9
:1008F0003A3078F426FF06C0FAE05F9E300D1124EE
:10090000532E13C08AE0389E300D1124332E2062FE
:100910000CC08E3221F426FD6BC1206406C08C36DB
:1009200011F4206802C0883641F4F60193FD8591E8
:1009300093FF81916F018111C1CF982F9F7D9554B5
:10094000933028F40C5F1F4FFFE3F9830DC083360B
:1009500031F0833771F0833509F05BC022C0F801B4
:10096000808189830E5F1F4F44244394512C54018E
:1009700015C03801F2E06F0E711CF801A080B18043
:1009800026FF03C0652D70E002C06FEF7FEFC50149
:100990002C870E940D062C0183012C852F77222E97
:1009A00017C03801F2E06F0E711CF801A080B18011
:1009B00026FF03C0652D70E002C06FEF7FEFC50119
:1009C0002C870E9402062C012C852068222E830190
:1009D00023FC1BC0832D90E048165906B0F4B701E4
:1009E00080E290E00E9428063A94F4CFF50127FCBB
:1009F000859127FE81915F01B70190E00E94280652
:100A000031103A94F1E04F1A51084114510471F732
:100A1000E5C0843611F0893639F5F80127FF07C0A3
:100A200060817181828193810C5F1F4F08C060815A
:100A30007181072E000C880B990B0E5F1F4F2F76CC
:100A4000722E97FF09C090958095709561957F4FA4
:100A50008F4F9F4F2068722E2AE030E0A4010E9441
:100A60006006A82EA81844C0853729F42F7EB22E20
:100A70002AE030E025C0F22FF97FBF2E8F36C1F07B
:100A800018F4883579F0B4C0803719F0883721F030
:100A9000AFC02F2F2061B22EB4FE0DC08B2D84600D
:100AA000B82E09C024FF0AC09F2F9660B92E06C039
:100AB00028E030E005C020E130E002C020E132E073
:100AC000F801B7FE07C060817181828193810C5F5C
:100AD0001F4F06C06081718180E090E00E5F1F4F64
:100AE000A4010E946006A82EA818FB2DFF777F2E78
:100AF00076FE0BC0372D3E7FA51450F474FE0AC05D
:100B000072FC08C0372D3E7E05C0BA2C372D03C0BD
:100B1000BA2C01C0B52C34FF0DC0FE01EA0DF11D49
:100B20008081803311F4397E09C032FF06C0B3944E
:100B3000B39404C0832F867809F0B39433FD13C0B7
:100B400030FF06C05A2CB31418F4530C5B18B32CA6
:100B5000B31468F4B70180E290E03C870E94280655
:100B6000B3943C85F5CFB31410F43B1801C0312C7D
:100B700034FF12C0B70180E390E03C870E94280652
:100B80003C8532FF17C031FD03C088E790E002C00A
:100B900088E590E0B7010CC0832F867859F031FFCB
:100BA00002C08BE201C080E237FD8DE2B70190E028
:100BB0000E942806A51438F4B70180E390E00E9453
:100BC00028065A94F7CFAA94F401EA0DF11D80810A
:100BD000B70190E00E942806A110F5CF332009F458
:100BE00051CEB70180E290E00E9428063A94F6CFF9
:100BF000F7018681978102C08FEF9FEF2C96E2E18B
:100C00000C94D706FC010590615070400110D8F794
:100C1000809590958E0F9F1F0895FC016150704044
:100C200001900110D8F7809590958E0F9F1F089521
:100C3000DC01FC01672F71917723E1F7329704C043
:100C40007C916D9370836291AE17BF07C8F30895CE
:100C50000F931F93CF93DF93FB01238121FD03C0EB
:100C60008FEF9FEF28C022FF16C046815781248155
:100C700035814217530744F4A081B1819D012F5F54
:100C80003F4F208331838C93268137812F5F3F4FE5
:100C90002683378310C0EB01092F182F0084F185BC
:100CA000E02D0995892BE1F68E819F8101968E8337
:100CB0009F83812F902FDF91CF911F910F910895E6
:100CC000FA01AA27283051F1203181F1E8946F937D
:100CD0006E7F6E5F7F4F8F4F9F4FAF4FB1E03ED023
:100CE000B4E03CD0670F781F891F9A1FA11D680FC1
:100CF000791F8A1F911DA11D6A0F711D811D911DF4
:100D0000A11D20D009F468943F912AE0269F112468
:100D10003019305D3193DEF6CF010895462F4770CC
:100D2000405D4193B3E00FD0C9F7F6CF462F4F7027
:100D3000405D4A3318F0495D31FD4052419302D085
:100D4000A9F7EACFB4E0A69597958795779567952B
:100D5000BA95C9F700976105710508959B01AC012B
:100D60000A2E06945795479537952795BA95C9F752
:100D7000620F731F841F951FA01D08952F923F922D
:100D80004F925F926F927F928F929F92AF92BF929B
:100D9000CF92DF92EF92FF920F931F93CF93DF9347
:100DA000CDB7DEB7CA1BDB0BCDBFDEBF09942A88E7
:100DB000398848885F846E847D848C849B84AA846F
:100DC000B984C884DF80EE80FD800C811B81AA81FC
:100DD000B981CE0FD11DCDBFDEBFED010895F894CE
:020DE000FFCF43
:100DE2000A0D4964656E74696669656420626F61A3
:100DF20072642E00235B4C6F74204944204E756D43
:100E02006265723A20005D005B5761666572204937
:100E120044204E756D6265723A20000A0D235B49CB
:100E22004E495420524F534520434F4D4D535D0A76
:100E32000D00234669726D77617265207665727363
:100E4200696F6E2000302E31000A0D2353657269DE
:100E5200616C204E756D6265723A20004E4F5420CF
:100E6200534554000A0D234D736720666F726D61FE
:100E7200743A204972696469756D2053746174759E
:100E820073207C20525353492056616C7565207C37
:100E920020436F6D6D73205374617475730A0D0076
:100EA200526563656976656420646174612E200011
:100EB2005475726E696E67206F6666204972696446
:100EC20069756D204D6F64656D0A0D005475726E03
:100ED200696E67206F6E204972696469756D204D75
:100EE2006F64656D0A0D005475726E696E67206FCE
:100EF200666620586265650A0D005475726E696EE9
:100F020067206F6E20584265650A0D00256C7825B2
:0C0F12006C780025642E2530346400004B
:00000001FF
