S0110000524F5353436F6D6D732E73726563CD
S11300000C9456000C9473000C9473000C947300BD
S11300100C9473000C9473000C9473000C940E01F4
S11300200C9418010C9473000C9473000C947300DA
S11300300C94F6000C9473000C9473000C947300ED
S11300400C9473000C9473000C9473000C94730060
S11300500C9473000C9473000C9473000C94730050
S11300600C9473000C9473000C9473000C94730040
S11300700C9473000C9473000C9473000C94730030
S11300800C9473000C9473000C9473000C94730020
S11300900C9473000C9473000C9473000C94730010
S11300A00C9473000C9473000C94730011241FBE01
S11300B0CFEFCDBFDFE2DEBF11E2A0E0B0E2E0ECC3
S11300C0FEE002C005900D92A033B107D9F721E2FA
S11300D0A0E3B1E201C01D92AF34B207E1F70E9480
S11300E0D2020C945E070C940000A0E0B6E034E069
S11300F012963C931297E0E4F6E080E1828390E26A
S11301009283848B858B12968C93129711969C9371
S1130110119728E011962C9341E04183A0E6B6E0C4
S113012011969C93119711968C9311973183218387
S113013080E412968C930895E0E5F0E08BE48283EA
S1130140808188608083818183FD09C0A0E4B6E05A
S113015098E015969C931597818183FFFACF88E0E8
S11301608093460688ED84BFE0E5F0E088EC858363
S1130170808180618083818184FD09C0A0E4B6E030
S113018098E015969C931597818184FFFACF88E0B7
S11301908093460688ED84BFE0E4F0E0108284BFDB
S11301A084E080830895E0E4F6E080E8818380E4DD
S11301B08283868580618687E0ECF8E083E084832F
S11301C082E286831782838180618383838188604E
S11301D083830895E0E0F8E087E0808389E09DE38D
S11301E086A397A3118281E0868308951F920F92BC
S11301F00FB60F9211248F93EF93FF93E0E0F8E092
S113020084858160848781E080934E21FF91EF9102
S11302108F910F900FBE0F901F9018951F920F9201
S11302200FB60F9211240F900FBE0F901F901895C8
S11302301F920F920FB60F9211248F93EF93FF9397
S113024080914D21882331F084E0809346061092FA
S11302504D2106C084E08093450681E080934D21C2
S1130260E0E0F4E01086118682E08383FF91EF9151
S11302708F910F900FBE0F901F901895AAECB1E0CC
S113028022E02C93FC0184911C9208952F923F92BA
S11302904F925F926F927F928F929F92AF92BF9292
S11302A0CF92DF92EF92FF920F931F93CF93DF933E
S11302B088E090E00E943E01C2E4D1E2888389E0B4
S11302C090E00E943E0189838AE090E00E943E0112
S11302D08A838BE090E00E943E018B838CE090E067
S11302E00E943E018C838DE090E00E943E018D834C
S11302F080E190E00E943E018E8382E190E00E94C2
S11303003E018F8383E190E00E943E01888784E16F
S113031090E00E943E01898785E190E00E943E01C1
S11303208A872880312C412C512C612C712C43015B
S1130330A3E4B1E2E4E6F0E08D918E9FE0018F9FAB
S1130340D00D11241D2F110F110B222D332D442DEF
S1130350552D662D772D882D992DAC2EBD2EC12EB1
S1130360D12EE12EF12E012F0E944E04222E332E87
S1130370442E552E662E772E882E992EEC59FF4F3B
S1130380E83582E0F807C1F620923A2130923B2109
S113039040923C2150923D2160923E2170923F2137
S11303A08092402190924121E2E4F1E22681A781EA
S11303B0C4E6AC9FD00111241B2F110F110B30E0A8
S11303C040E050E060E070E080E090E0AA2EBB2EB8
S11303D0C12ED12EE12EF12E012F0E944E04A085B4
S11303E0C8ECAC9FD00111241B2F110F110BAA2EA6
S11303F0BB2EC12ED12EE12EF12E012F0E944E04D0
S1130400C185ACE2B1E0CA9FF001CB9FF00D11248D
S11304101F2F110F110BAE2EBF2EC12ED12EE12E88
S1130420F12E012F0E944E04209332213093332168
S113043040933421509335216093362170933721B2
S113044080933821909339218FEF9FEF809330214F
S113045090933121222D332D442D552D662D772D4A
S1130460882D992D2D3D324441405105610571057A
S11304708105910501F5209132213091332140917C
S1130480342150913521609136217091372180912A
S1130490382190913921233F3542410551056105A9
S11304A0710581059105B9F581E090E080933021D3
S11304B09093312130C0222D332D442D552D662D9E
S11304C0772D882D992D29313943414051056105F6
S11304D0710581059105F9F4209132213091332180
S11304E0409134215091352160913621709137210A
S11304F0809138219091392124383E42410551059B
S1130500610571058105910531F482E090E08093E5
S113051030219093312180E090E20E949203209157
S11305203A2130913B2140913C2150913D216091F1
S11305303E2170913F2180914021909141210E9460
S1130540E10382E190E20E94920384E190E20E943E
S113055092032091322130913321409134215091E2
S11305603521609136217091372180913821909105
S113057039210E94E10382E190E20E949203DF911B
S1130580CF911F910F91FF90EF90DF90CF90BF908C
S1130590AF909F908F907F906F905F904F903F901F
S11305A02F9008950E9475000E949C000E94D30021
S11305B00E9446010E94EA00E0EAF0E08281816044
S11305C082837894E0E0F6E088E0858380E28683A5
S11305D087E290E20E94A2038FE390E20E94A203CA
S11305E082E590E20E94A20386E590E20E94A203C3
S11305F080913021909131218F3F2FEF920729F480
S113060089E690E20E94A20302C00E94CA0381E725
S113061090E20E94A203C0E4D6E000E016E06894F1
S1130620BB24B2F80F2EF0ECEF2EF8E0FF2EF02DE5
S11306306894CC24C3F86894DD24D5F880914E21C5
S1130640882309F110924E2198858885F801A084A9
S11306509072990F8071892B0E94B2038DEA90E207
S11306600E94A2038FEA90E20E94A2038DEA90E224
S11306700E94A203A4FA882780F90E94B2038CE3A3
S113068090E20E94A2038C8182FD02C0BD8201C05F
S1130690BE82FFEF20E782E0F15020408040E1F786
S11306A000C00000F701818188238CF584EB90E27F
S11306B00E94A2038CE390E20E94A203F701A080AF
S11306C0F8E2AF1207C084EC90E20E94A203F801A2
S11306D0D68214C0F9E2AF1207C080EE90E20E9405
S11306E0A203F801D58213C0F2E3AF1207C08BEF67
S11306F090E20E94A203F801C58209C0F3E3AF129D
S113070006C08EE091E20E94A203F801C682F801BD
S1130710808584FD03C0CD82D58290CFCE82F8013E
S1130720D6828CCFFC012081222359F0DC01119662
S1130730E0ECF8E0918195FFFDCF20832D9121110C
S1130740F9CF0895FC012081222359F0DC01119690
S1130750E0ECF8E0918195FFFDCF20832D912111EC
S1130760F9CF0895CF93DF93CDB7DEB72A97CDBFE6
S1130770DEBF4AE0BE016F5F7F4F90E00E945704E6
S1130780CE0101960E9492032A96CDBFDEBFDF916F
S1130790CF910895CF93DF93CDB7DEB76497CDBFE4
S11307A0DEBF4AE0BE016F5F7F4F0E945704CE0157
S11307B001960E9492036496CDBFDEBFDF91CF9174
S11307C00895FF920F931F93CF93DF93CDB7DEB7B6
S11307D0E297CDBFDEBFF52EE22FF32F142F20E0DA
S11307E030E040E050E000E20E943204822F932F78
S11307F0A42FB52F892B8A2B8B2BA9F0FF921F9343
S1130800FF93EF935F934F933F932F9380E291E293
S11308109F938F93CE0101969F938F930E947C04A4
S1130820CDBFDEBF10C0FF921F93FF93EF9383E20F
S113083091E29F938F93CE0101969F938F930E9491
S11308407C04CDBFDEBFCE0101960E949203E296E6
S1130850CDBFDEBFDF91CF911F910F91FF9008951F
S113086097FB10F8169400080F93083098F008507E
S1130870232F342F452F562F672F782F892F902D14
S1130880F4CF0594979587957795679557954795F0
S1130890379527950A95AAF70F9108952A0D3B1DC0
S11308A04C1D5D1D6E1D7F1D801F911F0895BB276C
S11308B04A3031F4992322F4BDE2909581959F4FFB
S11308C00C946304BB27FB015527AA27880F991FA3
S11308D0AA1FA41710F0A41B83955051B9F7A05D6B
S11308E0AA3308F0A95DA193009779F7B111B193E8
S11308F01192CB010C948706AEE0B0E0E2E8F4E09C
S11309000C943B070D891E8986E08C8309831A8326
S11309108FEF9FE78D839E83AE01475E5F4F6F89A4
S1130920788DCE0101960E949F042F813885F801AD
S1130930E20FF31F10822E96E4E00C945407ACE00F
S1130940B0E0E5EAF4E00C942D077C016B018A0128
S1130950FC0116821782838181FFBDC1CE010196FD
S11309604C01F7019381F60193FD859193FF8191E9
S11309706F01882309F4ABC1853239F493FD859165
S113098093FF81916F01853229F4B70190E00E94B1
S11309909706E7CF512C312C20E02032A0F48B3283
S11309A069F030F4803259F0833269F420612CC04C
S11309B08D3239F0803339F4216026C022602460FE
S11309C023C0286021C027FD27C030ED380F3A30FE
S11309D078F426FF06C0FAE05F9E300D1124532EF2
S11309E013C08AE0389E300D1124332E20620CC0CF
S11309F08E3221F426FD6BC1206406C08C3611F4BE
S1130A00206802C0883641F4F60193FD859193FF76
S1130A1081916F018111C1CF982F9F7D955493309F
S1130A2028F40C5F1F4FFFE3F9830DC0833631F0C8
S1130A30833771F0833509F05BC022C0F8018081EF
S1130A4089830E5F1F4F44244394512C540115C0D5
S1130A503801F2E06F0E711CF801A080B18026FF0E
S1130A6003C0652D70E002C06FEF7FEFC5012C87D6
S1130A700E947C062C0183012C852F77222E17C01F
S1130A803801F2E06F0E711CF801A080B18026FFDE
S1130A9003C0652D70E002C06FEF7FEFC5012C87A6
S1130AA00E9471062C012C852068222E830123FCD0
S1130AB01BC0832D90E048165906B0F4B70180E2BC
S1130AC090E00E9497063A94F4CFF50127FC8591B3
S1130AD027FE81915F01B70190E00E9497063110D3
S1130AE03A94F1E04F1A51084114510471F7E5C0EA
S1130AF0843611F0893639F5F80127FF07C0608183
S1130B007181828193810C5F1F4F08C06081718164
S1130B10072E000C880B990B0E5F1F4F2F76722E39
S1130B2097FF09C090958095709561957F4F8F4F81
S1130B309F4F2068722E2AE030E0A4010E94CF0665
S1130B40A82EA81844C0853729F42F7EB22E2AE097
S1130B5030E025C0F22FF97FBF2E8F36C1F018F494
S1130B60883579F0B4C0803719F0883721F0AFC0E8
S1130B702F2F2061B22EB4FE0DC08B2D8460B82EB1
S1130B8009C024FF0AC09F2F9660B92E06C028E032
S1130B9030E005C020E130E002C020E132E0F8019D
S1130BA0B7FE07C060817181828193810C5F1F4F02
S1130BB006C06081718180E090E00E5F1F4FA40148
S1130BC00E94CF06A82EA818FB2DFF777F2E76FE55
S1130BD00BC0372D3E7FA51450F474FE0AC072FC7E
S1130BE008C0372D3E7E05C0BA2C372D03C0BA2C61
S1130BF001C0B52C34FF0DC0FE01EA0DF11D80814A
S1130C00803311F4397E09C032FF06C0B394B39423
S1130C1004C0832F867809F0B39433FD13C030FFEA
S1130C2006C05A2CB31418F4530C5B18B32CB31429
S1130C3068F4B70180E290E03C870E949706B39481
S1130C403C85F5CFB31410F43B1801C0312C34FFAC
S1130C5012C0B70180E390E03C870E9497063C8570
S1130C6032FF17C031FD03C088E790E002C088E579
S1130C7090E0B7010CC0832F867859F031FF02C091
S1130C808BE201C080E237FD8DE2B70190E00E9463
S1130C909706A51438F4B70180E390E00E94970604
S1130CA05A94F7CFAA94F401EA0DF11D8081B7019B
S1130CB090E00E949706A110F5CF332009F451CE9D
S1130CC0B70180E290E00E9497063A94F6CFF701CC
S1130CD08681978102C08FEF9FEF2C96E2E10C94FE
S1130CE04607FC010590615070400110D8F78095CB
S1130CF090958E0F9F1F0895FC01615070400190E4
S1130D000110D8F7809590958E0F9F1F0895DC01F0
S1130D10FC01672F71917723E1F7329704C07C912E
S1130D206D9370836291AE17BF07C8F308950F9354
S1130D301F93CF93DF93FB01238121FD03C08FEF2A
S1130D409FEF28C022FF16C0468157812481358138
S1130D504217530744F4A081B1819D012F5F3F4F97
S1130D60208331838C93268137812F5F3F4F2683E5
S1130D70378310C0EB01092F182F0084F185E02D73
S1130D800995892BE1F68E819F8101968E839F833D
S1130D90812F902FDF91CF911F910F910895FA0128
S1130DA0AA27283051F1203181F1E8946F936E7FA6
S1130DB06E5F7F4F8F4F9F4FAF4FB1E03ED0B4E097
S1130DC03CD0670F781F891F9A1FA11D680F791FD8
S1130DD08A1F911DA11D6A0F711D811D911DA11DE9
S1130DE020D009F468943F912AE0269F11243019F9
S1130DF0305D3193DEF6CF010895462F4770405D94
S1130E004193B3E00FD0C9F7F6CF462F4F70405D42
S1130E104A3318F0495D31FD4052419302D0A9F79D
S1130E20EACFB4E0A6959795879577956795BA9597
S1130E30C9F700976105710508959B01AC010A2E5D
S1130E4006945795479537952795BA95C9F7620F34
S1130E50731F841F951FA01D08952F923F924F92D8
S1130E605F926F927F928F929F92AF92BF92CF9236
S1130E70DF92EF92FF920F931F93CF93DF93CDB73F
S1130E80DEB7CA1BDB0BCDBFDEBF09942A883988C5
S1130E9048885F846E847D848C849B84AA84B9840E
S1130EA0C884DF80EE80FD800C811B81AA81B9811A
S1130EB0CE0FD11DCDBFDEBFED010895F894FFCF55
S1130EC0235B4C6F74204944204E756D6265723A01
S1130ED020005D005B5761666572204944204E75B1
S1130EE06D6265723A20000A0A0D235B494E49542B
S1130EF020524F534520434F4D4D535D0A0D00235F
S1130F004669726D776172652076657273696F6E7A
S1130F102000302E31000A0D2353657269616C2064
S1130F204E756D6265723A20004E4F5420534554FD
S1130F30000A0D234D736720666F726D61743A2049
S1130F404972696469756D20537461747573207C8A
S1130F5020525353492056616C7565207C20436FA1
S1130F606D6D73205374617475730A0D007C0052A7
S1130F7053534900526563656976656420646174FE
S1130F80612E20005475726E696E67206F6666204C
S1130F904972696469756D204D6F64656D0A0D0051
S1130FA05475726E696E67206F6E20497269646948
S1130FB0756D204D6F64656D0A0D005475726E6910
S1130FC06E67206F666620586265650A0D00547569
S1130FD0726E696E67206F6E20584265650A0D0057
S1130FE0256C78256C780025642E25303464000047
S9030000FC
