S0110000524F5353436F6D6D732E73726563CD
S11300000C9456000C9473000C9473000C947300BD
S11300100C9473000C9473000C9473000C94000102
S11300200C940A010C9473000C9473000C947300E8
S11300300C94E8000C9473000C9473000C947300FB
S11300400C9473000C9473000C9473000C94730060
S11300500C9473000C9473000C9473000C94730050
S11300600C9473000C9473000C9473000C94730040
S11300700C9473000C9473000C9473000C94730030
S11300800C9473000C9473000C9473000C94730020
S11300900C9473000C9473000C9473000C94730010
S11300A00C9473000C9473000C94730011241FBE01
S11300B0CFEFCDBFDFE2DEBF10E2A0E0B0E2EAE0C6
S11300C0F3E002C005900D92AE32B107D9F720E2F9
S11300D0AEE2B0E201C01D92A033B207E1F70E9484
S11300E030010C9483010C940000A0E0B6E034E0ED
S11300F012963C931297E0E4F6E080E1828390E26A
S1130100928312968C93129711969C93119728E0E0
S113011011962C9341E04183A0E6B6E011969C939E
S1130120119711968C9311973183218380E4129651
S11301308C930895E0E5F0E08BE48283808188600D
S11301408083818183FD09C0A0E4B6E098E0159620
S11301509C931597818183FFFACF88E080934606AC
S113016088ED84BFE0E5F0E088EC858380818061E0
S11301708083818184FD09C0A0E4B6E098E01596EF
S11301809C931597818184FFFACF88E0809346067B
S113019088ED84BFE0E4F0E0108284BF84E08083D3
S11301A00895E0E4F6E080E8818380E48283868534
S11301B080618687E0ECF8E083E0848382E28683D2
S11301C01782838180618383838188608383089518
S11301D01F920F920FB60F9211248F93EF93FF93F8
S11301E0E0E0F8E084858160848781E080932F20BB
S11301F0FF91EF918F910F900FBE0F901F90189564
S11302001F920F920FB60F9211240F900FBE0F90F2
S11302101F9018951F920F920FB60F9211248F936F
S1130220EF93FF9380912E20882331F084E0809314
S1130230460610922E2006C084E08093450681E095
S113024080932E20E0E0F4E01086118682E0838320
S1130250FF91EF918F910F900FBE0F901F90189503
S11302600E9475000E949A000E94D100E0E0F6E02E
S113027088E0858380E2868384E08093450680E07D
S113028090E20E947301C0E4D6E06894DD24D2F8C1
S113029000E016E06894EE24E3F86894FF24F5F88F
S11302A080912F20811110922F208C8182FD02C019
S11302B0DD8201C0DE822FEF80E792E02150804092
S11302C09040E1F700C0000082E190E20E947301D7
S11302D0F801808584FD03C0ED82F582E1CFEE82D2
S11302E0F801F682DDCFFC012081222359F0DC01E4
S11302F01196E0ECF8E0918195FFFDCF20832D91DC
S10D03002111F9CF0895F894FFCFFE
S113030A48656C6C6F2C20776F726C64203A290AEA
S113031A0D00506F7461746F657320617265207487
S111032A686520636F6F6C657374210A0D00A3
S9030000FC
